{
  "_format": "hh-sol-artifact-1",
  "contractName": "ProofChain",
  "sourceName": "contracts/ProofChain.sol",
  "abi": [
    {
      "inputs": [],
      "stateMutability": "nonpayable",
      "type": "constructor"
    },
    {
      "inputs": [],
      "name": "AccessControlBadConfirmation",
      "type": "error"
    },
    {
      "inputs": [
        {
          "internalType": "address",
          "name": "account",
          "type": "address"
        },
        {
          "internalType": "bytes32",
          "name": "neededRole",
          "type": "bytes32"
        }
      ],
      "name": "AccessControlUnauthorizedAccount",
      "type": "error"
    },
    {
      "inputs": [
        {
          "internalType": "bytes32",
          "name": "documentHash",
          "type": "bytes32"
        }
      ],
      "name": "DocumentAlreadyExists",
      "type": "error"
    },
    {
      "inputs": [
        {
          "internalType": "bytes32",
          "name": "documentHash",
          "type": "bytes32"
        }
      ],
      "name": "DocumentAlreadyRevoked",
      "type": "error"
    },
    {
      "inputs": [
        {
          "internalType": "bytes32",
          "name": "documentHash",
          "type": "bytes32"
        }
      ],
      "name": "DocumentDoesNotExist",
      "type": "error"
    },
    {
      "inputs": [],
      "name": "InvalidIPFSHash",
      "type": "error"
    },
    {
      "inputs": [],
      "name": "InvalidInputLength",
      "type": "error"
    },
    {
      "inputs": [],
      "name": "InvalidOwnerAddress",
      "type": "error"
    },
    {
      "inputs": [
        {
          "internalType": "address",
          "name": "issuerAddress",
          "type": "address"
        }
      ],
      "name": "IssuerAlreadyRegistered",
      "type": "error"
    },
    {
      "inputs": [
        {
          "internalType": "address",
          "name": "issuerAddress",
          "type": "address"
        }
      ],
      "name": "IssuerNotActive",
      "type": "error"
    },
    {
      "inputs": [],
      "name": "ReentrancyGuardReentrantCall",
      "type": "error"
    },
    {
      "inputs": [
        {
          "internalType": "address",
          "name": "caller",
          "type": "address"
        }
      ],
      "name": "Unauthorized",
      "type": "error"
    },
    {
      "anonymous": false,
      "inputs": [
        {
          "indexed": true,
          "internalType": "bytes32",
          "name": "documentHash",
          "type": "bytes32"
        },
        {
          "indexed": true,
          "internalType": "address",
          "name": "issuer",
          "type": "address"
        },
        {
          "indexed": true,
          "internalType": "address",
          "name": "owner",
          "type": "address"
        },
        {
          "indexed": false,
          "internalType": "string",
          "name": "documentType",
          "type": "string"
        },
        {
          "indexed": false,
          "internalType": "string",
          "name": "ipfsHash",
          "type": "string"
        },
        {
          "indexed": false,
          "internalType": "uint256",
          "name": "timestamp",
          "type": "uint256"
        }
      ],
      "name": "DocumentRegistered",
      "type": "event"
    },
    {
      "anonymous": false,
      "inputs": [
        {
          "indexed": true,
          "internalType": "bytes32",
          "name": "documentHash",
          "type": "bytes32"
        },
        {
          "indexed": true,
          "internalType": "address",
          "name": "revokedBy",
          "type": "address"
        },
        {
          "indexed": false,
          "internalType": "uint256",
          "name": "timestamp",
          "type": "uint256"
        }
      ],
      "name": "DocumentRevoked",
      "type": "event"
    },
    {
      "anonymous": false,
      "inputs": [
        {
          "indexed": true,
          "internalType": "bytes32",
          "name": "documentHash",
          "type": "bytes32"
        },
        {
          "indexed": true,
          "internalType": "address",
          "name": "verifier",
          "type": "address"
        },
        {
          "indexed": false,
          "internalType": "bool",
          "name": "isAuthentic",
          "type": "bool"
        },
        {
          "indexed": false,
          "internalType": "uint256",
          "name": "timestamp",
          "type": "uint256"
        }
      ],
      "name": "DocumentVerified",
      "type": "event"
    },
    {
      "anonymous": false,
      "inputs": [
        {
          "indexed": true,
          "internalType": "address",
          "name": "issuerAddress",
          "type": "address"
        },
        {
          "indexed": false,
          "internalType": "uint256",
          "name": "timestamp",
          "type": "uint256"
        }
      ],
      "name": "IssuerDeactivated",
      "type": "event"
    },
    {
      "anonymous": false,
      "inputs": [
        {
          "indexed": true,
          "internalType": "address",
          "name": "issuerAddress",
          "type": "address"
        },
        {
          "indexed": false,
          "internalType": "string",
          "name": "name",
          "type": "string"
        },
        {
          "indexed": false,
          "internalType": "string",
          "name": "category",
          "type": "string"
        },
        {
          "indexed": false,
          "internalType": "uint256",
          "name": "timestamp",
          "type": "uint256"
        }
      ],
      "name": "IssuerRegistered",
      "type": "event"
    },
    {
      "anonymous": false,
      "inputs": [
        {
          "indexed": true,
          "internalType": "bytes32",
          "name": "role",
          "type": "bytes32"
        },
        {
          "indexed": true,
          "internalType": "bytes32",
          "name": "previousAdminRole",
          "type": "bytes32"
        },
        {
          "indexed": true,
          "internalType": "bytes32",
          "name": "newAdminRole",
          "type": "bytes32"
        }
      ],
      "name": "RoleAdminChanged",
      "type": "event"
    },
    {
      "anonymous": false,
      "inputs": [
        {
          "indexed": true,
          "internalType": "bytes32",
          "name": "role",
          "type": "bytes32"
        },
        {
          "indexed": true,
          "internalType": "address",
          "name": "account",
          "type": "address"
        },
        {
          "indexed": true,
          "internalType": "address",
          "name": "sender",
          "type": "address"
        }
      ],
      "name": "RoleGranted",
      "type": "event"
    },
    {
      "anonymous": false,
      "inputs": [
        {
          "indexed": true,
          "internalType": "bytes32",
          "name": "role",
          "type": "bytes32"
        },
        {
          "indexed": true,
          "internalType": "address",
          "name": "account",
          "type": "address"
        },
        {
          "indexed": true,
          "internalType": "address",
          "name": "sender",
          "type": "address"
        }
      ],
      "name": "RoleRevoked",
      "type": "event"
    },
    {
      "inputs": [],
      "name": "ADMIN_ROLE",
      "outputs": [
        {
          "internalType": "bytes32",
          "name": "",
          "type": "bytes32"
        }
      ],
      "stateMutability": "view",
      "type": "function"
    },
    {
      "inputs": [],
      "name": "DEFAULT_ADMIN_ROLE",
      "outputs": [
        {
          "internalType": "bytes32",
          "name": "",
          "type": "bytes32"
        }
      ],
      "stateMutability": "view",
      "type": "function"
    },
    {
      "inputs": [],
      "name": "ISSUER_ROLE",
      "outputs": [
        {
          "internalType": "bytes32",
          "name": "",
          "type": "bytes32"
        }
      ],
      "stateMutability": "view",
      "type": "function"
    },
    {
      "inputs": [
        {
          "internalType": "uint256",
          "name": "",
          "type": "uint256"
        }
      ],
      "name": "allDocumentHashes",
      "outputs": [
        {
          "internalType": "bytes32",
          "name": "",
          "type": "bytes32"
        }
      ],
      "stateMutability": "view",
      "type": "function"
    },
    {
      "inputs": [
        {
          "internalType": "uint256",
          "name": "",
          "type": "uint256"
        }
      ],
      "name": "allIssuers",
      "outputs": [
        {
          "internalType": "address",
          "name": "",
          "type": "address"
        }
      ],
      "stateMutability": "view",
      "type": "function"
    },
    {
      "inputs": [
        {
          "internalType": "address",
          "name": "_issuerAddress",
          "type": "address"
        }
      ],
      "name": "deactivateIssuer",
      "outputs": [],
      "stateMutability": "nonpayable",
      "type": "function"
    },
    {
      "inputs": [
        {
          "internalType": "bytes32",
          "name": "",
          "type": "bytes32"
        }
      ],
      "name": "documents",
      "outputs": [
        {
          "internalType": "bytes32",
          "name": "documentHash",
          "type": "bytes32"
        },
        {
          "internalType": "address",
          "name": "issuer",
          "type": "address"
        },
        {
          "internalType": "address",
          "name": "owner",
          "type": "address"
        },
        {
          "internalType": "uint256",
          "name": "timestamp",
          "type": "uint256"
        },
        {
          "internalType": "string",
          "name": "ipfsHash",
          "type": "string"
        },
        {
          "internalType": "string",
          "name": "documentType",
          "type": "string"
        },
        {
          "internalType": "string",
          "name": "issuerName",
          "type": "string"
        },
        {
          "internalType": "bool",
          "name": "isRevoked",
          "type": "bool"
        },
        {
          "internalType": "bool",
          "name": "exists",
          "type": "bool"
        }
      ],
      "stateMutability": "view",
      "type": "function"
    },
    {
      "inputs": [
        {
          "internalType": "bytes32",
          "name": "_documentHash",
          "type": "bytes32"
        }
      ],
      "name": "getDocument",
      "outputs": [
        {
          "components": [
            {
              "internalType": "bytes32",
              "name": "documentHash",
              "type": "bytes32"
            },
            {
              "internalType": "address",
              "name": "issuer",
              "type": "address"
            },
            {
              "internalType": "address",
              "name": "owner",
              "type": "address"
            },
            {
              "internalType": "uint256",
              "name": "timestamp",
              "type": "uint256"
            },
            {
              "internalType": "string",
              "name": "ipfsHash",
              "type": "string"
            },
            {
              "internalType": "string",
              "name": "documentType",
              "type": "string"
            },
            {
              "internalType": "string",
              "name": "issuerName",
              "type": "string"
            },
            {
              "internalType": "bool",
              "name": "isRevoked",
              "type": "bool"
            },
            {
              "internalType": "bool",
              "name": "exists",
              "type": "bool"
            }
          ],
          "internalType": "struct ProofChain.Document",
          "name": "",
          "type": "tuple"
        }
      ],
      "stateMutability": "view",
      "type": "function"
    },
    {
      "inputs": [
        {
          "internalType": "address",
          "name": "_issuerAddress",
          "type": "address"
        }
      ],
      "name": "getIssuer",
      "outputs": [
        {
          "components": [
            {
              "internalType": "string",
              "name": "name",
              "type": "string"
            },
            {
              "internalType": "string",
              "name": "category",
              "type": "string"
            },
            {
              "internalType": "string",
              "name": "website",
              "type": "string"
            },
            {
              "internalType": "bool",
              "name": "isActive",
              "type": "bool"
            },
            {
              "internalType": "uint256",
              "name": "registeredAt",
              "type": "uint256"
            },
            {
              "internalType": "uint256",
              "name": "documentsIssued",
              "type": "uint256"
            }
          ],
          "internalType": "struct ProofChain.Issuer",
          "name": "",
          "type": "tuple"
        }
      ],
      "stateMutability": "view",
      "type": "function"
    },
    {
      "inputs": [
        {
          "internalType": "address",
          "name": "_issuer",
          "type": "address"
        }
      ],
      "name": "getIssuerDocuments",
      "outputs": [
        {
          "internalType": "bytes32[]",
          "name": "",
          "type": "bytes32[]"
        }
      ],
      "stateMutability": "view",
      "type": "function"
    },
    {
      "inputs": [
        {
          "internalType": "address",
          "name": "_owner",
          "type": "address"
        }
      ],
      "name": "getOwnerDocumentCount",
      "outputs": [
        {
          "internalType": "uint256",
          "name": "",
          "type": "uint256"
        }
      ],
      "stateMutability": "view",
      "type": "function"
    },
    {
      "inputs": [
        {
          "internalType": "address",
          "name": "_owner",
          "type": "address"
        }
      ],
      "name": "getOwnerDocuments",
      "outputs": [
        {
          "internalType": "bytes32[]",
          "name": "",
          "type": "bytes32[]"
        }
      ],
      "stateMutability": "view",
      "type": "function"
    },
    {
      "inputs": [
        {
          "internalType": "bytes32",
          "name": "role",
          "type": "bytes32"
        }
      ],
      "name": "getRoleAdmin",
      "outputs": [
        {
          "internalType": "bytes32",
          "name": "",
          "type": "bytes32"
        }
      ],
      "stateMutability": "view",
      "type": "function"
    },
    {
      "inputs": [],
      "name": "getStats",
      "outputs": [
        {
          "internalType": "uint256",
          "name": "_totalDocuments",
          "type": "uint256"
        },
        {
          "internalType": "uint256",
          "name": "_totalIssuers",
          "type": "uint256"
        },
        {
          "internalType": "uint256",
          "name": "_totalVerifications",
          "type": "uint256"
        }
      ],
      "stateMutability": "view",
      "type": "function"
    },
    {
      "inputs": [
        {
          "internalType": "bytes32",
          "name": "_documentHash",
          "type": "bytes32"
        }
      ],
      "name": "getVerificationLogs",
      "outputs": [
        {
          "components": [
            {
              "internalType": "address",
              "name": "verifier",
              "type": "address"
            },
            {
              "internalType": "uint256",
              "name": "timestamp",
              "type": "uint256"
            },
            {
              "internalType": "bool",
              "name": "isAuthentic",
              "type": "bool"
            }
          ],
          "internalType": "struct ProofChain.VerificationLog[]",
          "name": "",
          "type": "tuple[]"
        }
      ],
      "stateMutability": "view",
      "type": "function"
    },
    {
      "inputs": [
        {
          "internalType": "bytes32",
          "name": "role",
          "type": "bytes32"
        },
        {
          "internalType": "address",
          "name": "account",
          "type": "address"
        }
      ],
      "name": "grantRole",
      "outputs": [],
      "stateMutability": "nonpayable",
      "type": "function"
    },
    {
      "inputs": [
        {
          "internalType": "bytes32",
          "name": "role",
          "type": "bytes32"
        },
        {
          "internalType": "address",
          "name": "account",
          "type": "address"
        }
      ],
      "name": "hasRole",
      "outputs": [
        {
          "internalType": "bool",
          "name": "",
          "type": "bool"
        }
      ],
      "stateMutability": "view",
      "type": "function"
    },
    {
      "inputs": [
        {
          "internalType": "address",
          "name": "_addr",
          "type": "address"
        }
      ],
      "name": "isActiveIssuer",
      "outputs": [
        {
          "internalType": "bool",
          "name": "",
          "type": "bool"
        }
      ],
      "stateMutability": "view",
      "type": "function"
    },
    {
      "inputs": [
        {
          "internalType": "address",
          "name": "",
          "type": "address"
        },
        {
          "internalType": "uint256",
          "name": "",
          "type": "uint256"
        }
      ],
      "name": "issuerDocuments",
      "outputs": [
        {
          "internalType": "bytes32",
          "name": "",
          "type": "bytes32"
        }
      ],
      "stateMutability": "view",
      "type": "function"
    },
    {
      "inputs": [
        {
          "internalType": "address",
          "name": "",
          "type": "address"
        }
      ],
      "name": "issuers",
      "outputs": [
        {
          "internalType": "string",
          "name": "name",
          "type": "string"
        },
        {
          "internalType": "string",
          "name": "category",
          "type": "string"
        },
        {
          "internalType": "string",
          "name": "website",
          "type": "string"
        },
        {
          "internalType": "bool",
          "name": "isActive",
          "type": "bool"
        },
        {
          "internalType": "uint256",
          "name": "registeredAt",
          "type": "uint256"
        },
        {
          "internalType": "uint256",
          "name": "documentsIssued",
          "type": "uint256"
        }
      ],
      "stateMutability": "view",
      "type": "function"
    },
    {
      "inputs": [
        {
          "internalType": "address",
          "name": "",
          "type": "address"
        },
        {
          "internalType": "uint256",
          "name": "",
          "type": "uint256"
        }
      ],
      "name": "ownerDocuments",
      "outputs": [
        {
          "internalType": "bytes32",
          "name": "",
          "type": "bytes32"
        }
      ],
      "stateMutability": "view",
      "type": "function"
    },
    {
      "inputs": [
        {
          "internalType": "bytes32",
          "name": "_documentHash",
          "type": "bytes32"
        },
        {
          "internalType": "address",
          "name": "_owner",
          "type": "address"
        },
        {
          "internalType": "string",
          "name": "_ipfsHash",
          "type": "string"
        },
        {
          "internalType": "string",
          "name": "_documentType",
          "type": "string"
        }
      ],
      "name": "registerDocument",
      "outputs": [],
      "stateMutability": "nonpayable",
      "type": "function"
    },
    {
      "inputs": [
        {
          "internalType": "bytes32[]",
          "name": "_hashes",
          "type": "bytes32[]"
        },
        {
          "internalType": "address[]",
          "name": "_owners",
          "type": "address[]"
        },
        {
          "internalType": "string[]",
          "name": "_ipfsHashes",
          "type": "string[]"
        },
        {
          "internalType": "string[]",
          "name": "_documentTypes",
          "type": "string[]"
        }
      ],
      "name": "registerDocumentsBatch",
      "outputs": [],
      "stateMutability": "nonpayable",
      "type": "function"
    },
    {
      "inputs": [
        {
          "internalType": "address",
          "name": "_issuerAddress",
          "type": "address"
        },
        {
          "internalType": "string",
          "name": "_name",
          "type": "string"
        },
        {
          "internalType": "string",
          "name": "_category",
          "type": "string"
        },
        {
          "internalType": "string",
          "name": "_website",
          "type": "string"
        }
      ],
      "name": "registerIssuer",
      "outputs": [],
      "stateMutability": "nonpayable",
      "type": "function"
    },
    {
      "inputs": [
        {
          "internalType": "bytes32",
          "name": "role",
          "type": "bytes32"
        },
        {
          "internalType": "address",
          "name": "callerConfirmation",
          "type": "address"
        }
      ],
      "name": "renounceRole",
      "outputs": [],
      "stateMutability": "nonpayable",
      "type": "function"
    },
    {
      "inputs": [
        {
          "internalType": "bytes32",
          "name": "_documentHash",
          "type": "bytes32"
        }
      ],
      "name": "revokeDocument",
      "outputs": [],
      "stateMutability": "nonpayable",
      "type": "function"
    },
    {
      "inputs": [
        {
          "internalType": "bytes32",
          "name": "role",
          "type": "bytes32"
        },
        {
          "internalType": "address",
          "name": "account",
          "type": "address"
        }
      ],
      "name": "revokeRole",
      "outputs": [],
      "stateMutability": "nonpayable",
      "type": "function"
    },
    {
      "inputs": [
        {
          "internalType": "bytes4",
          "name": "interfaceId",
          "type": "bytes4"
        }
      ],
      "name": "supportsInterface",
      "outputs": [
        {
          "internalType": "bool",
          "name": "",
          "type": "bool"
        }
      ],
      "stateMutability": "view",
      "type": "function"
    },
    {
      "inputs": [],
      "name": "totalDocuments",
      "outputs": [
        {
          "internalType": "uint256",
          "name": "",
          "type": "uint256"
        }
      ],
      "stateMutability": "view",
      "type": "function"
    },
    {
      "inputs": [],
      "name": "totalIssuers",
      "outputs": [
        {
          "internalType": "uint256",
          "name": "",
          "type": "uint256"
        }
      ],
      "stateMutability": "view",
      "type": "function"
    },
    {
      "inputs": [],
      "name": "totalVerifications",
      "outputs": [
        {
          "internalType": "uint256",
          "name": "",
          "type": "uint256"
        }
      ],
      "stateMutability": "view",
      "type": "function"
    },
    {
      "inputs": [
        {
          "internalType": "bytes32",
          "name": "_documentHash",
          "type": "bytes32"
        }
      ],
      "name": "verifyDocument",
      "outputs": [
        {
          "internalType": "bool",
          "name": "isAuthentic",
          "type": "bool"
        },
        {
          "components": [
            {
              "internalType": "bytes32",
              "name": "documentHash",
              "type": "bytes32"
            },
            {
              "internalType": "address",
              "name": "issuer",
              "type": "address"
            },
            {
              "internalType": "address",
              "name": "owner",
              "type": "address"
            },
            {
              "internalType": "uint256",
              "name": "timestamp",
              "type": "uint256"
            },
            {
              "internalType": "string",
              "name": "ipfsHash",
              "type": "string"
            },
            {
              "internalType": "string",
              "name": "documentType",
              "type": "string"
            },
            {
              "internalType": "string",
              "name": "issuerName",
              "type": "string"
            },
            {
              "internalType": "bool",
              "name": "isRevoked",
              "type": "bool"
            },
            {
              "internalType": "bool",
              "name": "exists",
              "type": "bool"
            }
          ],
          "internalType": "struct ProofChain.Document",
          "name": "doc",
          "type": "tuple"
        }
      ],
      "stateMutability": "nonpayable",
      "type": "function"
    },
    {
      "inputs": [
        {
          "internalType": "bytes32",
          "name": "_documentHash",
          "type": "bytes32"
        }
      ],
      "name": "verifyDocumentView",
      "outputs": [
        {
          "internalType": "bool",
          "name": "isAuthentic",
          "type": "bool"
        },
        {
          "components": [
            {
              "internalType": "bytes32",
              "name": "documentHash",
              "type": "bytes32"
            },
            {
              "internalType": "address",
              "name": "issuer",
              "type": "address"
            },
            {
              "internalType": "address",
              "name": "owner",
              "type": "address"
            },
            {
              "internalType": "uint256",
              "name": "timestamp",
              "type": "uint256"
            },
            {
              "internalType": "string",
              "name": "ipfsHash",
              "type": "string"
            },
            {
              "internalType": "string",
              "name": "documentType",
              "type": "string"
            },
            {
              "internalType": "string",
              "name": "issuerName",
              "type": "string"
            },
            {
              "internalType": "bool",
              "name": "isRevoked",
              "type": "bool"
            },
            {
              "internalType": "bool",
              "name": "exists",
              "type": "bool"
            }
          ],
          "internalType": "struct ProofChain.Document",
          "name": "doc",
          "type": "tuple"
        }
      ],
      "stateMutability": "view",
      "type": "function"
    },
    {
      "inputs": [
        {
          "internalType": "bytes32[]",
          "name": "_hashes",
          "type": "bytes32[]"
        }
      ],
      "name": "verifyDocumentsBatch",
      "outputs": [
        {
          "internalType": "bool[]",
          "name": "isAuthenticList",
          "type": "bool[]"
        },
        {
          "components": [
            {
              "internalType": "bytes32",
              "name": "documentHash",
              "type": "bytes32"
            },
            {
              "internalType": "address",
              "name": "issuer",
              "type": "address"
            },
            {
              "internalType": "address",
              "name": "owner",
              "type": "address"
            },
            {
              "internalType": "uint256",
              "name": "timestamp",
              "type": "uint256"
            },
            {
              "internalType": "string",
              "name": "ipfsHash",
              "type": "string"
            },
            {
              "internalType": "string",
              "name": "documentType",
              "type": "string"
            },
            {
              "internalType": "string",
              "name": "issuerName",
              "type": "string"
            },
            {
              "internalType": "bool",
              "name": "isRevoked",
              "type": "bool"
            },
            {
              "internalType": "bool",
              "name": "exists",
              "type": "bool"
            }
          ],
          "internalType": "struct ProofChain.Document[]",
          "name": "docList",
          "type": "tuple[]"
        }
      ],
      "stateMutability": "view",
      "type": "function"
    }
  ],
  "bytecode": "0x608060405234801561000f575f5ffd5b5060017f9b779b17422d0df92223018b32b4d1fa46e071723d6817e2486d003becc55f005561003e5f336101f3565b506100697fa49807205ce4d355092ef5a8a18f56e8913cf4a201fbe287825b095693c21775336101f3565b506100947f114e74f6ea3bd819998f78687bfcb11b140da08e9b7d222fa9c1f1ba1f2aa122336101f3565b506040805161010081018252601060c082019081526f283937b7b321b430b4b71020b236b4b760811b60e08301528152815180830183526008815267706c6174666f726d60c01b6020828101919091528083019190915282518084018452601581527f68747470733a2f2f70726f6f66636861696e2e696f00000000000000000000008183015282840152600160608301524260808301525f60a083018190523381526002909152919091208151819061014e9082610334565b50602082015160018201906101639082610334565b50604082015160028201906101789082610334565b50606082015160038201805491151560ff199092169190911790556080820151600482015560a09091015160059091015560078054600181810183555f929092527fa66cc928b5edb82af9bd49922954155ab7b0942694bea4ce44661d9a8736c6880180546001600160a01b031916331790556009556103ee565b5f828152602081815260408083206001600160a01b038516845290915281205460ff16610293575f838152602081815260408083206001600160a01b03861684529091529020805460ff1916600117905561024b3390565b6001600160a01b0316826001600160a01b0316847f2f8788117e7eff1d82e926ec794901d17c78024a50270940304540a733656f0d60405160405180910390a4506001610296565b505f5b92915050565b634e487b7160e01b5f52604160045260245ffd5b600181811c908216806102c457607f821691505b6020821081036102e257634e487b7160e01b5f52602260045260245ffd5b50919050565b601f82111561032f57805f5260205f20601f840160051c8101602085101561030d5750805b601f840160051c820191505b8181101561032c575f8155600101610319565b50505b505050565b81516001600160401b0381111561034d5761034d61029c565b6103618161035b84546102b0565b846102e8565b6020601f821160018114610393575f831561037c5750848201515b5f19600385901b1c1916600184901b17845561032c565b5f84815260208120601f198516915b828110156103c257878501518255602094850194600190920191016103a2565b50848210156103df57868401515f19600387901b60f8161c191681555b50505050600190811b01905550565b6131e8806103fb5f395ff3fe608060405234801561000f575f5ffd5b50600436106101fd575f3560e01c80637a00913511610114578063b10d6b41116100a9578063d547741f11610079578063d547741f146104dc578063e000f5e0146104ef578063f70160f41461050f578063fe35089f14610530578063fef03da314610543575f5ffd5b8063b10d6b411461043f578063b442fc611461045f578063c59d48471461048a578063cba5aa9b146104ae575f5ffd5b8063952be80d116100e4578063952be80d14610409578063a217fddf1461041c578063a527632414610423578063ac90c14014610436575f5ffd5b80637a009135146103bc57806382aefa24146103cf57806391d14854146103e3578063927c7d4e146103f6575f5ffd5b806331bb017a1161019557806343d596651161016557806343d5966514610359578063553181ec146103795780635769f7df1461038257806375b238fc14610395578063784c229a146103a9575f5ffd5b806331bb017a146102fb57806331d19f651461030e57806336568abe1461032157806338a7543e14610334575f5ffd5b80632aa025d2116101d05780632aa025d21461028a5780632b2805db146102ab5780632c4414b3146102d35780632f2ff15d146102e8575f5ffd5b806301ffc9a7146102015780630927cd0d1461022957806313db6af414610240578063248a9ca314610268575b5f5ffd5b61021461020f3660046127ae565b610563565b60405190151581526020015b60405180910390f35b61023260095481565b604051908152602001610220565b61023261024e3660046127f7565b6001600160a01b03165f9081526003602052604090205490565b610232610276366004612810565b5f9081526020819052604090206001015490565b61029d610298366004612810565b610599565b60405161022092919061291c565b6102be6102b9366004612810565b6107fc565b6040516102209998979695949392919061293e565b6102e66102e13660046129fc565b6109e9565b005b6102e66102f6366004612ac6565b610c85565b6102e6610309366004612b2d565b610caf565b61023261031c366004612bd9565b610f40565b6102e661032f366004612ac6565b610f6b565b6103476103423660046127f7565b610fa3565b60405161022096959493929190612c01565b61036c6103673660046127f7565b61116e565b6040516102209190612c58565b61023260085481565b61036c6103903660046127f7565b6111d7565b6102325f5160206131935f395f51905f5281565b6102326103b7366004612bd9565b61123e565b6102e66103ca3660046127f7565b611257565b6102325f5160206131535f395f51905f5281565b6102146103f1366004612ac6565b611335565b610232610404366004612810565b61135d565b6102e6610417366004612810565b61137c565b6102325f81565b6102e6610431366004612c9a565b61149e565b610232600a5481565b61045261044d366004612810565b611605565b6040516102209190612d21565b61047261046d366004612810565b611872565b6040516001600160a01b039091168152602001610220565b600854600954600a5460408051938452602084019290925290820152606001610220565b6102146104bc3660046127f7565b6001600160a01b03165f9081526002602052604090206003015460ff1690565b6102e66104ea366004612ac6565b61189a565b6105026104fd366004612810565b6118be565b6040516102209190612d33565b61052261051d366004612d8e565b611954565b604051610220929190612dcc565b61029d61053e366004612810565b611d02565b6105566105513660046127f7565b6120e8565b6040516102209190612e6e565b5f6001600160e01b03198216637965db0b60e01b148061059357506301ffc9a760e01b6001600160e01b03198316145b92915050565b5f6105a2612752565b5f83815260016020526040902060070154610100900460ff166105c7575f9150915091565b5f8381526001602081815260409283902083516101208101855281548152928101546001600160a01b03908116928401929092526002810154909116928201929092526003820154606082015260048201805491929160808401919061062c90612ef1565b80601f016020809104026020016040519081016040528092919081815260200182805461065890612ef1565b80156106a35780601f1061067a576101008083540402835291602001916106a3565b820191905f5260205f20905b81548152906001019060200180831161068657829003601f168201915b505050505081526020016005820180546106bc90612ef1565b80601f01602080910402602001604051908101604052809291908181526020018280546106e890612ef1565b80156107335780601f1061070a57610100808354040283529160200191610733565b820191905f5260205f20905b81548152906001019060200180831161071657829003601f168201915b5050505050815260200160068201805461074c90612ef1565b80601f016020809104026020016040519081016040528092919081815260200182805461077890612ef1565b80156107c35780601f1061079a576101008083540402835291602001916107c3565b820191905f5260205f20905b8154815290600101906020018083116107a657829003601f168201915b50505091835250506007919091015460ff8082161515602084015261010090910416151560409091015260e08101511594909350915050565b600160208190525f9182526040909120805491810154600282015460038301546004840180546001600160a01b03948516959490931693919261083e90612ef1565b80601f016020809104026020016040519081016040528092919081815260200182805461086a90612ef1565b80156108b55780601f1061088c576101008083540402835291602001916108b5565b820191905f5260205f20905b81548152906001019060200180831161089857829003601f168201915b5050505050908060050180546108ca90612ef1565b80601f01602080910402602001604051908101604052809291908181526020018280546108f690612ef1565b80156109415780601f1061091857610100808354040283529160200191610941565b820191905f5260205f20905b81548152906001019060200180831161092457829003601f168201915b50505050509080600601805461095690612ef1565b80601f016020809104026020016040519081016040528092919081815260200182805461098290612ef1565b80156109cd5780601f106109a4576101008083540402835291602001916109cd565b820191905f5260205f20905b8154815290600101906020018083116109b057829003601f168201915b5050506007909301549192505060ff8082169161010090041689565b5f5160206131535f395f51905f52610a008161231b565b610a08612328565b878681141580610a185750808514155b80610a235750808314155b15610a4157604051637db491eb60e01b815260040160405180910390fd5b335f9081526002602052604090206003015460ff16610a7a5760405163356740c760e11b81523360048201526024015b60405180910390fd5b5f5b81811015610c62575f8b8b83818110610a9757610a97612f29565b90506020020135905060015f8281526020019081526020015f2060070160019054906101000a900460ff1615610ae357604051634cba503360e01b815260048101829052602401610a71565b5f8a8a84818110610af657610af6612f29565b9050602002016020810190610b0b91906127f7565b6001600160a01b031603610b3257604051633649397d60e21b815260040160405180910390fd5b878783818110610b4457610b44612f29565b9050602002810190610b569190612f3d565b90505f03610b7757604051636e6db68160e11b815260040160405180910390fd5b610c59818b8b85818110610b8d57610b8d612f29565b9050602002016020810190610ba291906127f7565b8a8a86818110610bb457610bb4612f29565b9050602002810190610bc69190612f3d565b8080601f0160208091040260200160405190810160405280939291908181526020018383808284375f920191909152508c92508b9150889050818110610c0e57610c0e612f29565b9050602002810190610c209190612f3d565b8080601f0160208091040260200160405190810160405280939291908181526020018383808284375f9201919091525061234392505050565b50600101610a7c565b5050610c7a60015f5160206131735f395f51905f5255565b505050505050505050565b5f82815260208190526040902060010154610c9f8161231b565b610ca983836125ec565b50505050565b5f5160206131935f395f51905f52610cc68161231b565b6001600160a01b0388165f9081526002602052604090206003015460ff1615610d0d57604051635f1ad68360e01b81526001600160a01b0389166004820152602401610a71565b5f869003610d2e57604051633649397d60e21b815260040160405180910390fd5b6040518060c0016040528088888080601f0160208091040260200160405190810160405280939291908181526020018383808284375f92019190915250505090825250604080516020601f8901819004810282018101909252878152918101919088908890819084018382808284375f92019190915250505090825250604080516020601f8701819004810282018101909252858152918101919086908690819084018382808284375f920182905250938552505060016020808501919091524260408086019190915260609094018390526001600160a01b038d16835260029052502081518190610e209082612fde565b5060208201516001820190610e359082612fde565b5060408201516002820190610e4a9082612fde565b50606082015160038201805460ff19169115159190911790556080820151600482015560a090910151600590910155610e905f5160206131535f395f51905f52896125ec565b50600780546001810182555f9182527fa66cc928b5edb82af9bd49922954155ab7b0942694bea4ce44661d9a8736c6880180546001600160a01b0319166001600160a01b038b161790556009805491610ee883613098565b9190505550876001600160a01b03167fb90fab3f509b58e3f490dae1e5c582e8fde219064c5b98889d1a22f99fd38e848888888842604051610f2e9594939291906130e4565b60405180910390a25050505050505050565b6003602052815f5260405f208181548110610f59575f80fd5b905f5260205f20015f91509150505481565b6001600160a01b0381163314610f945760405163334bd91960e11b815260040160405180910390fd5b610f9e828261267b565b505050565b60026020525f9081526040902080548190610fbd90612ef1565b80601f0160208091040260200160405190810160405280929190818152602001828054610fe990612ef1565b80156110345780601f1061100b57610100808354040283529160200191611034565b820191905f5260205f20905b81548152906001019060200180831161101757829003601f168201915b50505050509080600101805461104990612ef1565b80601f016020809104026020016040519081016040528092919081815260200182805461107590612ef1565b80156110c05780601f10611097576101008083540402835291602001916110c0565b820191905f5260205f20905b8154815290600101906020018083116110a357829003601f168201915b5050505050908060020180546110d590612ef1565b80601f016020809104026020016040519081016040528092919081815260200182805461110190612ef1565b801561114c5780601f106111235761010080835404028352916020019161114c565b820191905f5260205f20905b81548152906001019060200180831161112f57829003601f168201915b5050505060038301546004840154600590940154929360ff9091169290915086565b6001600160a01b0381165f908152600360209081526040918290208054835181840281018401909452808452606093928301828280156111cb57602002820191905f5260205f20905b8154815260200190600101908083116111b7575b50505050509050919050565b6001600160a01b0381165f908152600460209081526040918290208054835181840281018401909452808452606093928301828280156111cb57602002820191905f5260205f20908154815260200190600101908083116111b75750505050509050919050565b6004602052815f5260405f208181548110610f59575f80fd5b5f5160206131935f395f51905f5261126e8161231b565b6001600160a01b0382165f9081526002602052604090206003015460ff166112b45760405163356740c760e11b81526001600160a01b0383166004820152602401610a71565b6001600160a01b0382165f908152600260205260409020600301805460ff191690556112ed5f5160206131535f395f51905f528361267b565b50816001600160a01b03167f586aa13012da4d969863a6facf031a08a22f65dbae68786e4de5261d411a60d84260405161132991815260200190565b60405180910390a25050565b5f918252602082815260408084206001600160a01b0393909316845291905290205460ff1690565b6006818154811061136c575f80fd5b5f91825260209091200154905081565b5f81815260016020526040902060070154610100900460ff166113b557604051630c2e546560e41b815260048101829052602401610a71565b5f81815260016020819052604090912001546001600160a01b031633148015906113f357506113f15f5160206131935f395f51905f5233611335565b155b156114135760405163472511eb60e11b8152336004820152602401610a71565b5f8181526001602052604090206007015460ff161561144757604051620e74f960e51b815260048101829052602401610a71565b5f81815260016020818152604092839020600701805460ff19169092179091559051428152339183917f58dab06ff4a881de7cd15a590640a447aec068b61e18a8b9b4ae28a8984fe3d6910160405180910390a350565b5f5160206131535f395f51905f526114b58161231b565b6114bd612328565b5f87815260016020526040902060070154610100900460ff16156114f757604051634cba503360e01b815260048101889052602401610a71565b6001600160a01b03861661151e57604051633649397d60e21b815260040160405180910390fd5b5f84900361153f57604051636e6db68160e11b815260040160405180910390fd5b335f9081526002602052604090206003015460ff166115735760405163356740c760e11b8152336004820152602401610a71565b6115e6878787878080601f0160208091040260200160405190810160405280939291908181526020018383808284375f9201919091525050604080516020601f8b0181900481028201810190925289815292508991508890819084018382808284375f9201919091525061234392505050565b6115fc60015f5160206131735f395f51905f5255565b50505050505050565b61160d612752565b5f82815260016020526040902060070154610100900460ff1661164657604051630c2e546560e41b815260048101839052602401610a71565b5f8281526001602081815260409283902083516101208101855281548152928101546001600160a01b0390811692840192909252600281015490911692820192909252600382015460608201526004820180549192916080840191906116ab90612ef1565b80601f01602080910402602001604051908101604052809291908181526020018280546116d790612ef1565b80156117225780601f106116f957610100808354040283529160200191611722565b820191905f5260205f20905b81548152906001019060200180831161170557829003601f168201915b5050505050815260200160058201805461173b90612ef1565b80601f016020809104026020016040519081016040528092919081815260200182805461176790612ef1565b80156117b25780601f10611789576101008083540402835291602001916117b2565b820191905f5260205f20905b81548152906001019060200180831161179557829003601f168201915b505050505081526020016006820180546117cb90612ef1565b80601f01602080910402602001604051908101604052809291908181526020018280546117f790612ef1565b80156118425780601f1061181957610100808354040283529160200191611842565b820191905f5260205f20905b81548152906001019060200180831161182557829003601f168201915b50505091835250506007919091015460ff8082161515602084015261010090910416151560409091015292915050565b60078181548110611881575f80fd5b5f918252602090912001546001600160a01b0316905081565b5f828152602081905260409020600101546118b48161231b565b610ca9838361267b565b606060055f8381526020019081526020015f20805480602002602001604051908101604052809291908181526020015f905b82821015611949575f848152602090819020604080516060810182526003860290920180546001600160a01b031683526001808201548486015260029091015460ff1615159183019190915290835290920191016118f0565b505050509050919050565b60608082806001600160401b0381111561197057611970612f7f565b604051908082528060200260200182016040528015611999578160200160208202803683370190505b509250806001600160401b038111156119b4576119b4612f7f565b6040519080825280602002602001820160405280156119ed57816020015b6119da612752565b8152602001906001900390816119d25790505b5091505f5b81811015611cf8575f868683818110611a0d57611a0d612f29565b90506020020135905060015f8281526020019081526020015f2060070160019054906101000a900460ff1615611ccb575f8181526001602081815260409283902083516101208101855281548152928101546001600160a01b039081169284019290925260028101549091169282019290925260038201546060820152600482018054919291608084019190611aa290612ef1565b80601f0160208091040260200160405190810160405280929190818152602001828054611ace90612ef1565b8015611b195780601f10611af057610100808354040283529160200191611b19565b820191905f5260205f20905b815481529060010190602001808311611afc57829003601f168201915b50505050508152602001600582018054611b3290612ef1565b80601f0160208091040260200160405190810160405280929190818152602001828054611b5e90612ef1565b8015611ba95780601f10611b8057610100808354040283529160200191611ba9565b820191905f5260205f20905b815481529060010190602001808311611b8c57829003601f168201915b50505050508152602001600682018054611bc290612ef1565b80601f0160208091040260200160405190810160405280929190818152602001828054611bee90612ef1565b8015611c395780601f10611c1057610100808354040283529160200191611c39565b820191905f5260205f20905b815481529060010190602001808311611c1c57829003601f168201915b50505091835250506007919091015460ff808216151560208401526101009091041615156040909101528451859084908110611c7757611c77612f29565b602002602001018190525060015f8281526020019081526020015f206007015f9054906101000a900460ff1615858381518110611cb657611cb6612f29565b91151560209283029190910190910152611cef565b5f858381518110611cde57611cde612f29565b911515602092830291909101909101525b506001016119f2565b50505b9250929050565b5f611d0b612752565b600a8054905f611d1a83613098565b90915550505f83815260016020526040902060070154610100900460ff16611dfb575f83815260056020908152604080832081516060810183523380825242828601818152838601888152855460018082018855968a52888a209551600390910290950180546001600160a01b0319166001600160a01b0390961695909517855590519484019490945592516002909201805460ff191692151592909217909155825194855292840152909185917f9e1f9053e2a9fd44d20b9a1a32ce11635d33522b00bf00d0dc6371af05361000910160405180910390a35f9150915091565b5f8381526001602081815260409283902083516101208101855281548152928101546001600160a01b039081169284019290925260028101549091169282019290925260038201546060820152600482018054919291608084019190611e6090612ef1565b80601f0160208091040260200160405190810160405280929190818152602001828054611e8c90612ef1565b8015611ed75780601f10611eae57610100808354040283529160200191611ed7565b820191905f5260205f20905b815481529060010190602001808311611eba57829003601f168201915b50505050508152602001600582018054611ef090612ef1565b80601f0160208091040260200160405190810160405280929190818152602001828054611f1c90612ef1565b8015611f675780601f10611f3e57610100808354040283529160200191611f67565b820191905f5260205f20905b815481529060010190602001808311611f4a57829003601f168201915b50505050508152602001600682018054611f8090612ef1565b80601f0160208091040260200160405190810160405280929190818152602001828054611fac90612ef1565b8015611ff75780601f10611fce57610100808354040283529160200191611ff7565b820191905f5260205f20905b815481529060010190602001808311611fda57829003601f168201915b50505091835250506007919091015460ff808216151560208085019190915261010090920416151560409283015260e08301515f87815260058352838120845160608101865233808252428287018181529515838901818152855460018082018855968852968990209451600390970290940180546001600160a01b0319166001600160a01b0390971696909617865595519385019390935590516002909301805460ff19169315159390931790925584518381529384015290955092935085917f9e1f9053e2a9fd44d20b9a1a32ce11635d33522b00bf00d0dc6371af05361000910160405180910390a3915091565b6121206040518060c001604052806060815260200160608152602001606081526020015f151581526020015f81526020015f81525090565b6001600160a01b0382165f9081526002602052604090819020815160c0810190925280548290829061215190612ef1565b80601f016020809104026020016040519081016040528092919081815260200182805461217d90612ef1565b80156121c85780601f1061219f576101008083540402835291602001916121c8565b820191905f5260205f20905b8154815290600101906020018083116121ab57829003601f168201915b505050505081526020016001820180546121e190612ef1565b80601f016020809104026020016040519081016040528092919081815260200182805461220d90612ef1565b80156122585780601f1061222f57610100808354040283529160200191612258565b820191905f5260205f20905b81548152906001019060200180831161223b57829003601f168201915b5050505050815260200160028201805461227190612ef1565b80601f016020809104026020016040519081016040528092919081815260200182805461229d90612ef1565b80156122e85780601f106122bf576101008083540402835291602001916122e8565b820191905f5260205f20905b8154815290600101906020018083116122cb57829003601f168201915b5050509183525050600382015460ff16151560208201526004820154604082015260059091015460609091015292915050565b61232581336126e4565b50565b612330612721565b60025f5160206131735f395f51905f5255565b60408051610120810182528581523360208083018290526001600160a01b038716838501524260608401526080830186905260a083018590525f9182526002905291909120805460c08301919061239990612ef1565b80601f01602080910402602001604051908101604052809291908181526020018280546123c590612ef1565b80156124105780601f106123e757610100808354040283529160200191612410565b820191905f5260205f20905b8154815290600101906020018083116123f357829003601f168201915b50505091835250505f60208083018290526001604093840181905288835280825291839020845181559084015191810180546001600160a01b039384166001600160a01b0319918216179091559284015160028201805491909316931692909217905560608201516003820155608082015160048201906124919082612fde565b5060a082015160058201906124a69082612fde565b5060c082015160068201906124bb9082612fde565b5060e082015160079190910180546101009384015161ffff1990911692151561ff001916929092179115159092021790556001600160a01b0383165f90815260036020908152604080832080546001818101835591855283852001889055338085526004845282852080548084018255908652848620018990556006805492830190557ff652222313e28459528d920b65115c16c04f3efc82aaedc97be59f3f377c0d3f90910188905583526002909152812060050180549161257d83613098565b909155505060088054905f61259183613098565b9190505550826001600160a01b0316336001600160a01b0316857fc633b060eea36253352ee885c8a9ee2d2e424200d0e4b9169bbcf3ae59ece6448486426040516125de9392919061311d565b60405180910390a450505050565b5f6125f78383611335565b612674575f838152602081815260408083206001600160a01b03861684529091529020805460ff1916600117905561262c3390565b6001600160a01b0316826001600160a01b0316847f2f8788117e7eff1d82e926ec794901d17c78024a50270940304540a733656f0d60405160405180910390a4506001610593565b505f610593565b5f6126868383611335565b15612674575f838152602081815260408083206001600160a01b0386168085529252808320805460ff1916905551339286917ff6391f5c32d9c69d2a47ea670b442974b53935d1edc7fd64eb21e047a839171b9190a4506001610593565b6126ee8282611335565b61271d5760405163e2517d3f60e01b81526001600160a01b038216600482015260248101839052604401610a71565b5050565b5f5160206131735f395f51905f525460020361275057604051633ee5aeb560e01b815260040160405180910390fd5b565b6040518061012001604052805f81526020015f6001600160a01b031681526020015f6001600160a01b031681526020015f81526020016060815260200160608152602001606081526020015f151581526020015f151581525090565b5f602082840312156127be575f5ffd5b81356001600160e01b0319811681146127d5575f5ffd5b9392505050565b80356001600160a01b03811681146127f2575f5ffd5b919050565b5f60208284031215612807575f5ffd5b6127d5826127dc565b5f60208284031215612820575f5ffd5b5035919050565b5f81518084528060208401602086015e5f602082860101526020601f19601f83011685010191505092915050565b805182525f602082015161287460208501826001600160a01b03169052565b50604082015161288f60408501826001600160a01b03169052565b5060608201516060840152608082015161012060808501526128b5610120850182612827565b905060a083015184820360a08601526128ce8282612827565b91505060c083015184820360c08601526128e88282612827565b91505060e08301516128fe60e086018215159052565b5061010083015161291461010086018215159052565b509392505050565b8215158152604060208201525f6129366040830184612855565b949350505050565b8981526001600160a01b0389811660208301528816604082015260608101879052610120608082018190525f9061297790830188612827565b82810360a08401526129898188612827565b905082810360c084015261299d8187612827565b94151560e0840152505090151561010090910152979650505050505050565b5f5f83601f8401126129cc575f5ffd5b5081356001600160401b038111156129e2575f5ffd5b6020830191508360208260051b8501011115611cfb575f5ffd5b5f5f5f5f5f5f5f5f6080898b031215612a13575f5ffd5b88356001600160401b03811115612a28575f5ffd5b612a348b828c016129bc565b90995097505060208901356001600160401b03811115612a52575f5ffd5b612a5e8b828c016129bc565b90975095505060408901356001600160401b03811115612a7c575f5ffd5b612a888b828c016129bc565b90955093505060608901356001600160401b03811115612aa6575f5ffd5b612ab28b828c016129bc565b999c989b5096995094979396929594505050565b5f5f60408385031215612ad7575f5ffd5b82359150612ae7602084016127dc565b90509250929050565b5f5f83601f840112612b00575f5ffd5b5081356001600160401b03811115612b16575f5ffd5b602083019150836020828501011115611cfb575f5ffd5b5f5f5f5f5f5f5f6080888a031215612b43575f5ffd5b612b4c886127dc565b965060208801356001600160401b03811115612b66575f5ffd5b612b728a828b01612af0565b90975095505060408801356001600160401b03811115612b90575f5ffd5b612b9c8a828b01612af0565b90955093505060608801356001600160401b03811115612bba575f5ffd5b612bc68a828b01612af0565b989b979a50959850939692959293505050565b5f5f60408385031215612bea575f5ffd5b612bf3836127dc565b946020939093013593505050565b60c081525f612c1360c0830189612827565b8281036020840152612c258189612827565b90508281036040840152612c398188612827565b95151560608401525050608081019290925260a0909101529392505050565b602080825282518282018190525f918401906040840190835b81811015612c8f578351835260209384019390920191600101612c71565b509095945050505050565b5f5f5f5f5f5f60808789031215612caf575f5ffd5b86359550612cbf602088016127dc565b945060408701356001600160401b03811115612cd9575f5ffd5b612ce589828a01612af0565b90955093505060608701356001600160401b03811115612d03575f5ffd5b612d0f89828a01612af0565b979a9699509497509295939492505050565b602081525f6127d56020830184612855565b602080825282518282018190525f918401906040840190835b81811015612c8f57835180516001600160a01b031684526020808201518186015260409182015115159185019190915290930192606090920191600101612d4c565b5f5f60208385031215612d9f575f5ffd5b82356001600160401b03811115612db4575f5ffd5b612dc0858286016129bc565b90969095509350505050565b604080825283519082018190525f9060208501906060840190835b81811015612e075783511515835260209384019390920191600101612de7565b50508381036020850152809150845180825260208201925060208160051b830101602087015f5b83811015612e6057601f19858403018652612e4a838351612855565b6020968701969093509190910190600101612e2e565b509098975050505050505050565b602081525f825160c06020840152612e8960e0840182612827565b90506020840151601f19848303016040850152612ea68282612827565b9150506040840151601f19848303016060850152612ec48282612827565b915050606084015115156080840152608084015160a084015260a084015160c08401528091505092915050565b600181811c90821680612f0557607f821691505b602082108103612f2357634e487b7160e01b5f52602260045260245ffd5b50919050565b634e487b7160e01b5f52603260045260245ffd5b5f5f8335601e19843603018112612f52575f5ffd5b8301803591506001600160401b03821115612f6b575f5ffd5b602001915036819003821315611cfb575f5ffd5b634e487b7160e01b5f52604160045260245ffd5b601f821115610f9e57805f5260205f20601f840160051c81016020851015612fb85750805b601f840160051c820191505b81811015612fd7575f8155600101612fc4565b5050505050565b81516001600160401b03811115612ff757612ff7612f7f565b61300b816130058454612ef1565b84612f93565b6020601f82116001811461303d575f83156130265750848201515b5f19600385901b1c1916600184901b178455612fd7565b5f84815260208120601f198516915b8281101561306c578785015182556020948501946001909201910161304c565b508482101561308957868401515f19600387901b60f8161c191681555b50505050600190811b01905550565b5f600182016130b557634e487b7160e01b5f52601160045260245ffd5b5060010190565b81835281816020850137505f828201602090810191909152601f909101601f19169091010190565b606081525f6130f76060830187896130bc565b828103602084015261310a8186886130bc565b9150508260408301529695505050505050565b606081525f61312f6060830186612827565b82810360208401526131418186612827565b91505082604083015294935050505056fe114e74f6ea3bd819998f78687bfcb11b140da08e9b7d222fa9c1f1ba1f2aa1229b779b17422d0df92223018b32b4d1fa46e071723d6817e2486d003becc55f00a49807205ce4d355092ef5a8a18f56e8913cf4a201fbe287825b095693c21775a2646970667358221220cb3fe62cc5364542cbf84b7fb544904e00031fe8d85441a21f796a160b88f37364736f6c634300081b0033",
  "linkReferences": {},
  "deployedLinkReferences": {}
}