{
  "_format": "hh-sol-artifact-1",
  "contractName": "SoulboundNFT",
  "sourceName": "contracts/SoulboundNFT.sol",
  "abi": [
    {
      "inputs": [],
      "stateMutability": "nonpayable",
      "type": "constructor"
    },
    {
      "inputs": [],
      "name": "AccessControlBadConfirmation",
      "type": "error"
    },
    {
      "inputs": [
        {
          "internalType": "address",
          "name": "account",
          "type": "address"
        },
        {
          "internalType": "bytes32",
          "name": "neededRole",
          "type": "bytes32"
        }
      ],
      "name": "AccessControlUnauthorizedAccount",
      "type": "error"
    },
    {
      "inputs": [
        {
          "internalType": "address",
          "name": "sender",
          "type": "address"
        },
        {
          "internalType": "uint256",
          "name": "tokenId",
          "type": "uint256"
        },
        {
          "internalType": "address",
          "name": "owner",
          "type": "address"
        }
      ],
      "name": "ERC721IncorrectOwner",
      "type": "error"
    },
    {
      "inputs": [
        {
          "internalType": "address",
          "name": "operator",
          "type": "address"
        },
        {
          "internalType": "uint256",
          "name": "tokenId",
          "type": "uint256"
        }
      ],
      "name": "ERC721InsufficientApproval",
      "type": "error"
    },
    {
      "inputs": [
        {
          "internalType": "address",
          "name": "approver",
          "type": "address"
        }
      ],
      "name": "ERC721InvalidApprover",
      "type": "error"
    },
    {
      "inputs": [
        {
          "internalType": "address",
          "name": "operator",
          "type": "address"
        }
      ],
      "name": "ERC721InvalidOperator",
      "type": "error"
    },
    {
      "inputs": [
        {
          "internalType": "address",
          "name": "owner",
          "type": "address"
        }
      ],
      "name": "ERC721InvalidOwner",
      "type": "error"
    },
    {
      "inputs": [
        {
          "internalType": "address",
          "name": "receiver",
          "type": "address"
        }
      ],
      "name": "ERC721InvalidReceiver",
      "type": "error"
    },
    {
      "inputs": [
        {
          "internalType": "address",
          "name": "sender",
          "type": "address"
        }
      ],
      "name": "ERC721InvalidSender",
      "type": "error"
    },
    {
      "inputs": [
        {
          "internalType": "uint256",
          "name": "tokenId",
          "type": "uint256"
        }
      ],
      "name": "ERC721NonexistentToken",
      "type": "error"
    },
    {
      "inputs": [],
      "name": "ReentrancyGuardReentrantCall",
      "type": "error"
    },
    {
      "anonymous": false,
      "inputs": [
        {
          "indexed": true,
          "internalType": "address",
          "name": "owner",
          "type": "address"
        },
        {
          "indexed": true,
          "internalType": "address",
          "name": "approved",
          "type": "address"
        },
        {
          "indexed": true,
          "internalType": "uint256",
          "name": "tokenId",
          "type": "uint256"
        }
      ],
      "name": "Approval",
      "type": "event"
    },
    {
      "anonymous": false,
      "inputs": [
        {
          "indexed": true,
          "internalType": "address",
          "name": "owner",
          "type": "address"
        },
        {
          "indexed": true,
          "internalType": "address",
          "name": "operator",
          "type": "address"
        },
        {
          "indexed": false,
          "internalType": "bool",
          "name": "approved",
          "type": "bool"
        }
      ],
      "name": "ApprovalForAll",
      "type": "event"
    },
    {
      "anonymous": false,
      "inputs": [
        {
          "indexed": false,
          "internalType": "uint256",
          "name": "_fromTokenId",
          "type": "uint256"
        },
        {
          "indexed": false,
          "internalType": "uint256",
          "name": "_toTokenId",
          "type": "uint256"
        }
      ],
      "name": "BatchMetadataUpdate",
      "type": "event"
    },
    {
      "anonymous": false,
      "inputs": [
        {
          "indexed": true,
          "internalType": "uint256",
          "name": "tokenId",
          "type": "uint256"
        },
        {
          "indexed": true,
          "internalType": "address",
          "name": "issuer",
          "type": "address"
        },
        {
          "indexed": true,
          "internalType": "address",
          "name": "recipient",
          "type": "address"
        },
        {
          "indexed": false,
          "internalType": "string",
          "name": "credentialType",
          "type": "string"
        },
        {
          "indexed": false,
          "internalType": "bytes32",
          "name": "documentHash",
          "type": "bytes32"
        },
        {
          "indexed": false,
          "internalType": "uint256",
          "name": "timestamp",
          "type": "uint256"
        }
      ],
      "name": "CredentialMinted",
      "type": "event"
    },
    {
      "anonymous": false,
      "inputs": [
        {
          "indexed": true,
          "internalType": "uint256",
          "name": "tokenId",
          "type": "uint256"
        },
        {
          "indexed": true,
          "internalType": "address",
          "name": "revokedBy",
          "type": "address"
        },
        {
          "indexed": false,
          "internalType": "uint256",
          "name": "timestamp",
          "type": "uint256"
        }
      ],
      "name": "CredentialRevoked",
      "type": "event"
    },
    {
      "anonymous": false,
      "inputs": [
        {
          "indexed": false,
          "internalType": "uint256",
          "name": "_tokenId",
          "type": "uint256"
        }
      ],
      "name": "MetadataUpdate",
      "type": "event"
    },
    {
      "anonymous": false,
      "inputs": [
        {
          "indexed": true,
          "internalType": "bytes32",
          "name": "role",
          "type": "bytes32"
        },
        {
          "indexed": true,
          "internalType": "bytes32",
          "name": "previousAdminRole",
          "type": "bytes32"
        },
        {
          "indexed": true,
          "internalType": "bytes32",
          "name": "newAdminRole",
          "type": "bytes32"
        }
      ],
      "name": "RoleAdminChanged",
      "type": "event"
    },
    {
      "anonymous": false,
      "inputs": [
        {
          "indexed": true,
          "internalType": "bytes32",
          "name": "role",
          "type": "bytes32"
        },
        {
          "indexed": true,
          "internalType": "address",
          "name": "account",
          "type": "address"
        },
        {
          "indexed": true,
          "internalType": "address",
          "name": "sender",
          "type": "address"
        }
      ],
      "name": "RoleGranted",
      "type": "event"
    },
    {
      "anonymous": false,
      "inputs": [
        {
          "indexed": true,
          "internalType": "bytes32",
          "name": "role",
          "type": "bytes32"
        },
        {
          "indexed": true,
          "internalType": "address",
          "name": "account",
          "type": "address"
        },
        {
          "indexed": true,
          "internalType": "address",
          "name": "sender",
          "type": "address"
        }
      ],
      "name": "RoleRevoked",
      "type": "event"
    },
    {
      "anonymous": false,
      "inputs": [
        {
          "indexed": true,
          "internalType": "address",
          "name": "from",
          "type": "address"
        },
        {
          "indexed": true,
          "internalType": "address",
          "name": "to",
          "type": "address"
        },
        {
          "indexed": true,
          "internalType": "uint256",
          "name": "tokenId",
          "type": "uint256"
        }
      ],
      "name": "Transfer",
      "type": "event"
    },
    {
      "inputs": [],
      "name": "DEFAULT_ADMIN_ROLE",
      "outputs": [
        {
          "internalType": "bytes32",
          "name": "",
          "type": "bytes32"
        }
      ],
      "stateMutability": "view",
      "type": "function"
    },
    {
      "inputs": [],
      "name": "MINTER_ROLE",
      "outputs": [
        {
          "internalType": "bytes32",
          "name": "",
          "type": "bytes32"
        }
      ],
      "stateMutability": "view",
      "type": "function"
    },
    {
      "inputs": [
        {
          "internalType": "address",
          "name": "to",
          "type": "address"
        },
        {
          "internalType": "uint256",
          "name": "tokenId",
          "type": "uint256"
        }
      ],
      "name": "approve",
      "outputs": [],
      "stateMutability": "nonpayable",
      "type": "function"
    },
    {
      "inputs": [
        {
          "internalType": "address",
          "name": "owner",
          "type": "address"
        }
      ],
      "name": "balanceOf",
      "outputs": [
        {
          "internalType": "uint256",
          "name": "",
          "type": "uint256"
        }
      ],
      "stateMutability": "view",
      "type": "function"
    },
    {
      "inputs": [
        {
          "internalType": "uint256",
          "name": "",
          "type": "uint256"
        }
      ],
      "name": "credentials",
      "outputs": [
        {
          "internalType": "uint256",
          "name": "tokenId",
          "type": "uint256"
        },
        {
          "internalType": "address",
          "name": "issuer",
          "type": "address"
        },
        {
          "internalType": "address",
          "name": "recipient",
          "type": "address"
        },
        {
          "internalType": "string",
          "name": "credentialType",
          "type": "string"
        },
        {
          "internalType": "string",
          "name": "institution",
          "type": "string"
        },
        {
          "internalType": "string",
          "name": "program",
          "type": "string"
        },
        {
          "internalType": "string",
          "name": "ipfsHash",
          "type": "string"
        },
        {
          "internalType": "bytes32",
          "name": "documentHash",
          "type": "bytes32"
        },
        {
          "internalType": "uint256",
          "name": "issuedAt",
          "type": "uint256"
        },
        {
          "internalType": "bool",
          "name": "isRevoked",
          "type": "bool"
        }
      ],
      "stateMutability": "view",
      "type": "function"
    },
    {
      "inputs": [
        {
          "internalType": "uint256",
          "name": "tokenId",
          "type": "uint256"
        }
      ],
      "name": "getApproved",
      "outputs": [
        {
          "internalType": "address",
          "name": "",
          "type": "address"
        }
      ],
      "stateMutability": "view",
      "type": "function"
    },
    {
      "inputs": [
        {
          "internalType": "uint256",
          "name": "_tokenId",
          "type": "uint256"
        }
      ],
      "name": "getCredential",
      "outputs": [
        {
          "components": [
            {
              "internalType": "uint256",
              "name": "tokenId",
              "type": "uint256"
            },
            {
              "internalType": "address",
              "name": "issuer",
              "type": "address"
            },
            {
              "internalType": "address",
              "name": "recipient",
              "type": "address"
            },
            {
              "internalType": "string",
              "name": "credentialType",
              "type": "string"
            },
            {
              "internalType": "string",
              "name": "institution",
              "type": "string"
            },
            {
              "internalType": "string",
              "name": "program",
              "type": "string"
            },
            {
              "internalType": "string",
              "name": "ipfsHash",
              "type": "string"
            },
            {
              "internalType": "bytes32",
              "name": "documentHash",
              "type": "bytes32"
            },
            {
              "internalType": "uint256",
              "name": "issuedAt",
              "type": "uint256"
            },
            {
              "internalType": "bool",
              "name": "isRevoked",
              "type": "bool"
            }
          ],
          "internalType": "struct SoulboundNFT.Credential",
          "name": "",
          "type": "tuple"
        }
      ],
      "stateMutability": "view",
      "type": "function"
    },
    {
      "inputs": [
        {
          "internalType": "address",
          "name": "_recipient",
          "type": "address"
        }
      ],
      "name": "getRecipientCredentials",
      "outputs": [
        {
          "internalType": "uint256[]",
          "name": "",
          "type": "uint256[]"
        }
      ],
      "stateMutability": "view",
      "type": "function"
    },
    {
      "inputs": [
        {
          "internalType": "bytes32",
          "name": "role",
          "type": "bytes32"
        }
      ],
      "name": "getRoleAdmin",
      "outputs": [
        {
          "internalType": "bytes32",
          "name": "",
          "type": "bytes32"
        }
      ],
      "stateMutability": "view",
      "type": "function"
    },
    {
      "inputs": [
        {
          "internalType": "bytes32",
          "name": "role",
          "type": "bytes32"
        },
        {
          "internalType": "address",
          "name": "account",
          "type": "address"
        }
      ],
      "name": "grantRole",
      "outputs": [],
      "stateMutability": "nonpayable",
      "type": "function"
    },
    {
      "inputs": [
        {
          "internalType": "bytes32",
          "name": "role",
          "type": "bytes32"
        },
        {
          "internalType": "address",
          "name": "account",
          "type": "address"
        }
      ],
      "name": "hasRole",
      "outputs": [
        {
          "internalType": "bool",
          "name": "",
          "type": "bool"
        }
      ],
      "stateMutability": "view",
      "type": "function"
    },
    {
      "inputs": [
        {
          "internalType": "bytes32",
          "name": "",
          "type": "bytes32"
        }
      ],
      "name": "hashToTokenId",
      "outputs": [
        {
          "internalType": "uint256",
          "name": "",
          "type": "uint256"
        }
      ],
      "stateMutability": "view",
      "type": "function"
    },
    {
      "inputs": [
        {
          "internalType": "address",
          "name": "owner",
          "type": "address"
        },
        {
          "internalType": "address",
          "name": "operator",
          "type": "address"
        }
      ],
      "name": "isApprovedForAll",
      "outputs": [
        {
          "internalType": "bool",
          "name": "",
          "type": "bool"
        }
      ],
      "stateMutability": "view",
      "type": "function"
    },
    {
      "inputs": [
        {
          "internalType": "address",
          "name": "_recipient",
          "type": "address"
        },
        {
          "internalType": "string",
          "name": "_credentialType",
          "type": "string"
        },
        {
          "internalType": "string",
          "name": "_institution",
          "type": "string"
        },
        {
          "internalType": "string",
          "name": "_program",
          "type": "string"
        },
        {
          "internalType": "string",
          "name": "_ipfsHash",
          "type": "string"
        },
        {
          "internalType": "bytes32",
          "name": "_documentHash",
          "type": "bytes32"
        },
        {
          "internalType": "string",
          "name": "_tokenURI",
          "type": "string"
        }
      ],
      "name": "mintCredential",
      "outputs": [
        {
          "internalType": "uint256",
          "name": "",
          "type": "uint256"
        }
      ],
      "stateMutability": "nonpayable",
      "type": "function"
    },
    {
      "inputs": [],
      "name": "name",
      "outputs": [
        {
          "internalType": "string",
          "name": "",
          "type": "string"
        }
      ],
      "stateMutability": "view",
      "type": "function"
    },
    {
      "inputs": [
        {
          "internalType": "uint256",
          "name": "tokenId",
          "type": "uint256"
        }
      ],
      "name": "ownerOf",
      "outputs": [
        {
          "internalType": "address",
          "name": "",
          "type": "address"
        }
      ],
      "stateMutability": "view",
      "type": "function"
    },
    {
      "inputs": [
        {
          "internalType": "address",
          "name": "",
          "type": "address"
        },
        {
          "internalType": "uint256",
          "name": "",
          "type": "uint256"
        }
      ],
      "name": "recipientTokens",
      "outputs": [
        {
          "internalType": "uint256",
          "name": "",
          "type": "uint256"
        }
      ],
      "stateMutability": "view",
      "type": "function"
    },
    {
      "inputs": [
        {
          "internalType": "bytes32",
          "name": "role",
          "type": "bytes32"
        },
        {
          "internalType": "address",
          "name": "callerConfirmation",
          "type": "address"
        }
      ],
      "name": "renounceRole",
      "outputs": [],
      "stateMutability": "nonpayable",
      "type": "function"
    },
    {
      "inputs": [
        {
          "internalType": "uint256",
          "name": "_tokenId",
          "type": "uint256"
        }
      ],
      "name": "revokeCredential",
      "outputs": [],
      "stateMutability": "nonpayable",
      "type": "function"
    },
    {
      "inputs": [
        {
          "internalType": "bytes32",
          "name": "role",
          "type": "bytes32"
        },
        {
          "internalType": "address",
          "name": "account",
          "type": "address"
        }
      ],
      "name": "revokeRole",
      "outputs": [],
      "stateMutability": "nonpayable",
      "type": "function"
    },
    {
      "inputs": [
        {
          "internalType": "address",
          "name": "from",
          "type": "address"
        },
        {
          "internalType": "address",
          "name": "to",
          "type": "address"
        },
        {
          "internalType": "uint256",
          "name": "tokenId",
          "type": "uint256"
        }
      ],
      "name": "safeTransferFrom",
      "outputs": [],
      "stateMutability": "nonpayable",
      "type": "function"
    },
    {
      "inputs": [
        {
          "internalType": "address",
          "name": "from",
          "type": "address"
        },
        {
          "internalType": "address",
          "name": "to",
          "type": "address"
        },
        {
          "internalType": "uint256",
          "name": "tokenId",
          "type": "uint256"
        },
        {
          "internalType": "bytes",
          "name": "data",
          "type": "bytes"
        }
      ],
      "name": "safeTransferFrom",
      "outputs": [],
      "stateMutability": "nonpayable",
      "type": "function"
    },
    {
      "inputs": [
        {
          "internalType": "address",
          "name": "operator",
          "type": "address"
        },
        {
          "internalType": "bool",
          "name": "approved",
          "type": "bool"
        }
      ],
      "name": "setApprovalForAll",
      "outputs": [],
      "stateMutability": "nonpayable",
      "type": "function"
    },
    {
      "inputs": [
        {
          "internalType": "bytes4",
          "name": "interfaceId",
          "type": "bytes4"
        }
      ],
      "name": "supportsInterface",
      "outputs": [
        {
          "internalType": "bool",
          "name": "",
          "type": "bool"
        }
      ],
      "stateMutability": "view",
      "type": "function"
    },
    {
      "inputs": [],
      "name": "symbol",
      "outputs": [
        {
          "internalType": "string",
          "name": "",
          "type": "string"
        }
      ],
      "stateMutability": "view",
      "type": "function"
    },
    {
      "inputs": [
        {
          "internalType": "uint256",
          "name": "tokenId",
          "type": "uint256"
        }
      ],
      "name": "tokenURI",
      "outputs": [
        {
          "internalType": "string",
          "name": "",
          "type": "string"
        }
      ],
      "stateMutability": "view",
      "type": "function"
    },
    {
      "inputs": [],
      "name": "totalCredentials",
      "outputs": [
        {
          "internalType": "uint256",
          "name": "",
          "type": "uint256"
        }
      ],
      "stateMutability": "view",
      "type": "function"
    },
    {
      "inputs": [
        {
          "internalType": "address",
          "name": "from",
          "type": "address"
        },
        {
          "internalType": "address",
          "name": "to",
          "type": "address"
        },
        {
          "internalType": "uint256",
          "name": "tokenId",
          "type": "uint256"
        }
      ],
      "name": "transferFrom",
      "outputs": [],
      "stateMutability": "nonpayable",
      "type": "function"
    },
    {
      "inputs": [
        {
          "internalType": "bytes32",
          "name": "_documentHash",
          "type": "bytes32"
        }
      ],
      "name": "verifyByHash",
      "outputs": [
        {
          "internalType": "bool",
          "name": "exists",
          "type": "bool"
        },
        {
          "components": [
            {
              "internalType": "uint256",
              "name": "tokenId",
              "type": "uint256"
            },
            {
              "internalType": "address",
              "name": "issuer",
              "type": "address"
            },
            {
              "internalType": "address",
              "name": "recipient",
              "type": "address"
            },
            {
              "internalType": "string",
              "name": "credentialType",
              "type": "string"
            },
            {
              "internalType": "string",
              "name": "institution",
              "type": "string"
            },
            {
              "internalType": "string",
              "name": "program",
              "type": "string"
            },
            {
              "internalType": "string",
              "name": "ipfsHash",
              "type": "string"
            },
            {
              "internalType": "bytes32",
              "name": "documentHash",
              "type": "bytes32"
            },
            {
              "internalType": "uint256",
              "name": "issuedAt",
              "type": "uint256"
            },
            {
              "internalType": "bool",
              "name": "isRevoked",
              "type": "bool"
            }
          ],
          "internalType": "struct SoulboundNFT.Credential",
          "name": "cred",
          "type": "tuple"
        }
      ],
      "stateMutability": "view",
      "type": "function"
    }
  ],
  "bytecode": "0x608060405234801561000f575f5ffd5b506040518060400160405280601581526020017f50726f6f66436861696e2043726564656e7469616c00000000000000000000008152506040518060400160405280600381526020016250434360e81b815250815f9081610070919061023b565b50600161007d828261023b565b50505060016100966100936100d260201b60201c565b90565b556100a15f336100f6565b506100cc7f9f2df0fed2c77648de5860a4cc508cd0818c85b8b8a1ab4ceeef8d981c8956a6336100f6565b506102f5565b7f9b779b17422d0df92223018b32b4d1fa46e071723d6817e2486d003becc55f0090565b5f8281526007602090815260408083206001600160a01b038516845290915281205460ff1661019a575f8381526007602090815260408083206001600160a01b03861684529091529020805460ff191660011790556101523390565b6001600160a01b0316826001600160a01b0316847f2f8788117e7eff1d82e926ec794901d17c78024a50270940304540a733656f0d60405160405180910390a450600161019d565b505f5b92915050565b634e487b7160e01b5f52604160045260245ffd5b600181811c908216806101cb57607f821691505b6020821081036101e957634e487b7160e01b5f52602260045260245ffd5b50919050565b601f82111561023657805f5260205f20601f840160051c810160208510156102145750805b601f840160051c820191505b81811015610233575f8155600101610220565b50505b505050565b81516001600160401b03811115610254576102546101a3565b6102688161026284546101b7565b846101ef565b6020601f82116001811461029a575f83156102835750848201515b5f19600385901b1c1916600184901b178455610233565b5f84815260208120601f198516915b828110156102c957878501518255602094850194600190920191016102a9565b50848210156102e657868401515f19600387901b60f8161c191681555b50505050600190811b01905550565b61284f806103025f395ff3fe608060405234801561000f575f5ffd5b50600436106101c6575f3560e01c806370a08231116100fe578063ada5d9331161009e578063d547741f1161006e578063d547741f1461040e578063e0574e3f14610421578063e985e9c51461044a578063f51f74a91461045d575f5ffd5b8063ada5d933146103a1578063b88d4fde146103c1578063c87b56dd146103d4578063d5391393146103e7575f5ffd5b806391d14854116100d957806391d148541461036c57806395d89b411461037f578063a217fddf14610387578063a22cb4651461038e575f5ffd5b806370a0823114610326578063733c4861146103395780638dd18d2d1461034c575f5ffd5b8063248a9ca31161016957806342842e0e1161014457806342842e0e146102cc5780635d4dd1be146102df5780636352211e14610300578063657ef4c414610313575f5ffd5b8063248a9ca3146102845780632f2ff15d146102a657806336568abe146102b9575f5ffd5b8063095ea7b3116101a4578063095ea7b3146102325780631513d62b146102475780631b87278d1461025e57806323b872dd14610271575f5ffd5b806301ffc9a7146101ca57806306fdde03146101f2578063081812fc14610207575b5f5ffd5b6101dd6101d8366004612069565b61047c565b60405190151581526020015b60405180910390f35b6101fa61048c565b6040516101e991906120b2565b61021a6102153660046120c4565b61051b565b6040516001600160a01b0390911681526020016101e9565b6102456102403660046120f6565b610542565b005b610250600c5481565b6040519081526020016101e9565b61024561026c3660046120c4565b610551565b61024561027f36600461211e565b61066f565b6102506102923660046120c4565b5f9081526007602052604090206001015490565b6102456102b4366004612158565b6106f8565b6102456102c7366004612158565b61071c565b6102456102da36600461211e565b610754565b6102f26102ed3660046120c4565b61076e565b6040516101e9929190612253565b61021a61030e3660046120c4565b610a66565b6102506103213660046120f6565b610a70565b61025061033436600461226d565b610a9b565b61025061034736600461232f565b610ae0565b61035f61035a3660046120c4565b610df5565b6040516101e9919061242b565b6101dd61037a366004612158565b6110b3565b6101fa6110dd565b6102505f81565b61024561039c36600461243d565b6110ec565b6103b46103af36600461226d565b6110f7565b6040516101e99190612476565b6102456103cf3660046124b8565b611160565b6101fa6103e23660046120c4565b611178565b6102507f9f2df0fed2c77648de5860a4cc508cd0818c85b8b8a1ab4ceeef8d981c8956a681565b61024561041c366004612158565b611183565b61043461042f3660046120c4565b6111a7565b6040516101e99a9998979695949392919061252f565b6101dd6104583660046125c2565b61141e565b61025061046b3660046120c4565b600b6020525f908152604090205481565b5f6104868261144b565b92915050565b60605f805461049a906125ea565b80601f01602080910402602001604051908101604052809291908181526020018280546104c6906125ea565b80156105115780601f106104e857610100808354040283529160200191610511565b820191905f5260205f20905b8154815290600101906020018083116104f457829003601f168201915b5050505050905090565b5f6105258261146f565b505f828152600460205260409020546001600160a01b0316610486565b61054d8282336114a7565b5050565b5f818152600960205260409020600101546001600160a01b031633148061057d575061057d5f336110b3565b6105bf5760405162461bcd60e51b815260206004820152600e60248201526d139bdd08185d5d1a1bdc9a5e995960921b60448201526064015b60405180910390fd5b5f818152600960208190526040909120015460ff16156106135760405162461bcd60e51b815260206004820152600f60248201526e105b1c9958591e481c995d9bdad959608a1b60448201526064016105b6565b5f8181526009602081905260409182902001805460ff1916600117905551339082907f938d88ce0186b371ae88271ba50d0551b7160c89aa3c418a36776eb505654342906106649042815260200190565b60405180910390a350565b6001600160a01b03821661069857604051633250574960e11b81525f60048201526024016105b6565b5f6106a48383336114b4565b9050836001600160a01b0316816001600160a01b0316146106f2576040516364283d7b60e01b81526001600160a01b03808616600483015260248201849052821660448201526064016105b6565b50505050565b5f8281526007602052604090206001015461071281611553565b6106f28383611560565b6001600160a01b03811633146107455760405163334bd91960e11b815260040160405180910390fd5b61074f82826115f1565b505050565b61074f83838360405180602001604052805f815250611160565b5f610777611ff3565b5f838152600b602052604081205490819003610796575f925050915091565b5f6107a2600183612636565b5f818152600960209081526040918290208251610140810184528154815260018201546001600160a01b03908116938201939093526002820154909216928201929092526003820180549394509092606084019190610800906125ea565b80601f016020809104026020016040519081016040528092919081815260200182805461082c906125ea565b80156108775780601f1061084e57610100808354040283529160200191610877565b820191905f5260205f20905b81548152906001019060200180831161085a57829003601f168201915b50505050508152602001600482018054610890906125ea565b80601f01602080910402602001604051908101604052809291908181526020018280546108bc906125ea565b80156109075780601f106108de57610100808354040283529160200191610907565b820191905f5260205f20905b8154815290600101906020018083116108ea57829003601f168201915b50505050508152602001600582018054610920906125ea565b80601f016020809104026020016040519081016040528092919081815260200182805461094c906125ea565b80156109975780601f1061096e57610100808354040283529160200191610997565b820191905f5260205f20905b81548152906001019060200180831161097a57829003601f168201915b505050505081526020016006820180546109b0906125ea565b80601f01602080910402602001604051908101604052809291908181526020018280546109dc906125ea565b8015610a275780601f106109fe57610100808354040283529160200191610a27565b820191905f5260205f20905b815481529060010190602001808311610a0a57829003601f168201915b5050509183525050600782015460208201526008820154604082015260099091015460ff16151560609091015261012081015115969095509350505050565b5f6104868261146f565b600a602052815f5260405f208181548110610a89575f80fd5b905f5260205f20015f91509150505481565b5f6001600160a01b038216610ac5576040516322718ad960e21b81525f60048201526024016105b6565b506001600160a01b03165f9081526003602052604090205490565b5f7f9f2df0fed2c77648de5860a4cc508cd0818c85b8b8a1ab4ceeef8d981c8956a6610b0b81611553565b610b1361165c565b6001600160a01b038916610b5d5760405162461bcd60e51b8152602060048201526011602482015270125b9d985b1a59081c9958da5c1a595b9d607a1b60448201526064016105b6565b5f848152600b602052604090205415610bcc5760405162461bcd60e51b815260206004820152602b60248201527f43726564656e7469616c20616c72656164792065786973747320666f7220746860448201526a1a5cc8191bd8dd5b595b9d60aa1b60648201526084016105b6565b600880545f9182610bdc83612649565b919050559050610bec8a8261168a565b610bf681856116a3565b60408051610140810182528281523360208083019182526001600160a01b038e8116848601908152606085018f8152608086018f905260a086018e905260c086018d905260e086018c9052426101008701525f61012087018190528881526009909452959092208451815592516001840180546001600160a01b03199081169284169290921790559151600284018054909316911617905591519091906003820190610ca290826126a5565b5060808201516004820190610cb790826126a5565b5060a08201516005820190610ccc90826126a5565b5060c08201516006820190610ce190826126a5565b5060e082015160078201556101008201516008820155610120909101516009909101805460ff19169115159190911790556001600160a01b038a165f908152600a6020908152604082208054600181810183559184529190922001829055610d4a908290612760565b5f868152600b6020526040812091909155600c805491610d6983612649565b9190505550896001600160a01b0316336001600160a01b0316827f450d39a2e5b70a9f536dfaec22cef9a78ce4f20a61f999f495305ebd22fcbea28c8942604051610db693929190612773565b60405180910390a49150610de960017f9b779b17422d0df92223018b32b4d1fa46e071723d6817e2486d003becc55f0055565b50979650505050505050565b610dfd611ff3565b5f828152600960209081526040918290208251610140810184528154815260018201546001600160a01b0390811693820193909352600282015490921692820192909252600382018054919291606084019190610e59906125ea565b80601f0160208091040260200160405190810160405280929190818152602001828054610e85906125ea565b8015610ed05780601f10610ea757610100808354040283529160200191610ed0565b820191905f5260205f20905b815481529060010190602001808311610eb357829003601f168201915b50505050508152602001600482018054610ee9906125ea565b80601f0160208091040260200160405190810160405280929190818152602001828054610f15906125ea565b8015610f605780601f10610f3757610100808354040283529160200191610f60565b820191905f5260205f20905b815481529060010190602001808311610f4357829003601f168201915b50505050508152602001600582018054610f79906125ea565b80601f0160208091040260200160405190810160405280929190818152602001828054610fa5906125ea565b8015610ff05780601f10610fc757610100808354040283529160200191610ff0565b820191905f5260205f20905b815481529060010190602001808311610fd357829003601f168201915b50505050508152602001600682018054611009906125ea565b80601f0160208091040260200160405190810160405280929190818152602001828054611035906125ea565b80156110805780601f1061105757610100808354040283529160200191611080565b820191905f5260205f20905b81548152906001019060200180831161106357829003601f168201915b5050509183525050600782015460208201526008820154604082015260099091015460ff16151560609091015292915050565b5f9182526007602090815260408084206001600160a01b0393909316845291905290205460ff1690565b60606001805461049a906125ea565b61054d3383836116f2565b6001600160a01b0381165f908152600a602090815260409182902080548351818402810184019094528084526060939283018282801561115457602002820191905f5260205f20905b815481526020019060010190808311611140575b50505050509050919050565b61116b84848461066f565b6106f233858585856117b9565b6060610486826118e1565b5f8281526007602052604090206001015461119d81611553565b6106f283836115f1565b60096020525f9081526040902080546001820154600283015460038401805493946001600160a01b039384169493909216926111e2906125ea565b80601f016020809104026020016040519081016040528092919081815260200182805461120e906125ea565b80156112595780601f1061123057610100808354040283529160200191611259565b820191905f5260205f20905b81548152906001019060200180831161123c57829003601f168201915b50505050509080600401805461126e906125ea565b80601f016020809104026020016040519081016040528092919081815260200182805461129a906125ea565b80156112e55780601f106112bc576101008083540402835291602001916112e5565b820191905f5260205f20905b8154815290600101906020018083116112c857829003601f168201915b5050505050908060050180546112fa906125ea565b80601f0160208091040260200160405190810160405280929190818152602001828054611326906125ea565b80156113715780601f1061134857610100808354040283529160200191611371565b820191905f5260205f20905b81548152906001019060200180831161135457829003601f168201915b505050505090806006018054611386906125ea565b80601f01602080910402602001604051908101604052809291908181526020018280546113b2906125ea565b80156113fd5780601f106113d4576101008083540402835291602001916113fd565b820191905f5260205f20905b8154815290600101906020018083116113e057829003601f168201915b50505050600783015460088401546009909401549293909290915060ff168a565b6001600160a01b039182165f90815260056020908152604080832093909416825291909152205460ff1690565b5f6001600160e01b03198216637965db0b60e01b1480610486575061048682611962565b5f818152600260205260408120546001600160a01b03168061048657604051637e27328960e01b8152600481018490526024016105b6565b61074f8383836001611986565b5f828152600260205260408120546001600160a01b031680158015906114e257506001600160a01b03851615155b1561153f5760405162461bcd60e51b815260206004820152602760248201527f536f756c626f756e644e46543a20746f6b656e206973206e6f6e2d7472616e7360448201526666657261626c6560c81b60648201526084016105b6565b61154a858585611a8a565b95945050505050565b61155d8133611b7c565b50565b5f61156b83836110b3565b6115ea575f8381526007602090815260408083206001600160a01b03861684529091529020805460ff191660011790556115a23390565b6001600160a01b0316826001600160a01b0316847f2f8788117e7eff1d82e926ec794901d17c78024a50270940304540a733656f0d60405160405180910390a4506001610486565b505f610486565b5f6115fc83836110b3565b156115ea575f8381526007602090815260408083206001600160a01b0386168085529252808320805460ff1916905551339286917ff6391f5c32d9c69d2a47ea670b442974b53935d1edc7fd64eb21e047a839171b9190a4506001610486565b611664611bb5565b60027f9b779b17422d0df92223018b32b4d1fa46e071723d6817e2486d003becc55f0055565b61054d828260405180602001604052805f815250611bf9565b5f8281526006602052604090206116ba82826126a5565b506040518281527ff8e1a15aba9398e019f0b49df1a4fde98ee17ae345cb5f6b5e2c27f5033e8ce79060200160405180910390a15050565b6001600160a01b03831661171b5760405163a9fbf51f60e01b81525f60048201526024016105b6565b6001600160a01b03821661174d57604051630b61174360e31b81526001600160a01b03831660048201526024016105b6565b6001600160a01b038381165f81815260056020908152604080832094871680845294825291829020805460ff191686151590811790915591519182527f17307eab39ab6107e8899845ad3d59bd9653f200f220920489ca2b5937696c31910160405180910390a3505050565b6001600160a01b0383163b156118da57604051630a85bd0160e11b81526001600160a01b0384169063150b7a02906117fb908890889087908790600401612797565b6020604051808303815f875af1925050508015611835575060408051601f3d908101601f19168201909252611832918101906127d3565b60015b61189c573d808015611862576040519150601f19603f3d011682016040523d82523d5f602084013e611867565b606091505b5080515f0361189457604051633250574960e11b81526001600160a01b03851660048201526024016105b6565b805160208201fd5b6001600160e01b03198116630a85bd0160e11b146118d857604051633250574960e11b81526001600160a01b03851660048201526024016105b6565b505b5050505050565b60606118ec8261146f565b505f61190260408051602081019091525f815290565b90505f61190e84611c10565b905081515f0361191f579392505050565b805115611951578181604051602001611939929190612805565b60405160208183030381529060405292505050919050565b61195a84611ca5565b949350505050565b5f6001600160e01b03198216632483248360e11b1480610486575061048682611d16565b808061199a57506001600160a01b03821615155b15611a5b575f6119a98461146f565b90506001600160a01b038316158015906119d55750826001600160a01b0316816001600160a01b031614155b80156119e857506119e6818461141e565b155b15611a115760405163a9fbf51f60e01b81526001600160a01b03841660048201526024016105b6565b8115611a595783856001600160a01b0316826001600160a01b03167f8c5be1e5ebec7d5bd14f71427d1e84f3dd0314c0f7b2291e5b200ac8c7c3b92560405160405180910390a45b505b50505f90815260046020526040902080546001600160a01b0319166001600160a01b0392909216919091179055565b5f828152600260205260408120546001600160a01b0390811690831615611ab657611ab6818486611d65565b6001600160a01b03811615611af057611ad15f855f5f611986565b6001600160a01b0381165f90815260036020526040902080545f190190555b6001600160a01b03851615611b1e576001600160a01b0385165f908152600360205260409020805460010190555b5f8481526002602052604080822080546001600160a01b0319166001600160a01b0389811691821790925591518793918516917fddf252ad1be2c89b69c2b068fc378daa952ba7f163c4a11628f55a4df523b3ef91a4949350505050565b611b8682826110b3565b61054d5760405163e2517d3f60e01b81526001600160a01b0382166004820152602481018390526044016105b6565b7f9b779b17422d0df92223018b32b4d1fa46e071723d6817e2486d003becc55f0054600203611bf757604051633ee5aeb560e01b815260040160405180910390fd5b565b611c038383611dc9565b61074f335f8585856117b9565b5f818152600660205260409020805460609190611c2c906125ea565b80601f0160208091040260200160405190810160405280929190818152602001828054611c58906125ea565b80156111545780601f10611c7a57610100808354040283529160200191611154565b820191905f5260205f20905b815481529060010190602001808311611c865750939695505050505050565b6060611cb08261146f565b505f611cc660408051602081019091525f815290565b90505f815111611ce45760405180602001604052805f815250611d0f565b80611cee84611e2a565b604051602001611cff929190612805565b6040516020818303038152906040525b9392505050565b5f6001600160e01b031982166380ac58cd60e01b1480611d4657506001600160e01b03198216635b5e139f60e01b145b8061048657506301ffc9a760e01b6001600160e01b0319831614610486565b611d70838383611ebb565b61074f576001600160a01b038316611d9e57604051637e27328960e01b8152600481018290526024016105b6565b60405163177e802f60e01b81526001600160a01b0383166004820152602481018290526044016105b6565b6001600160a01b038216611df257604051633250574960e11b81525f60048201526024016105b6565b5f611dfe83835f6114b4565b90506001600160a01b0381161561074f576040516339e3563760e11b81525f60048201526024016105b6565b60605f611e3683611f1c565b60010190505f8167ffffffffffffffff811115611e5557611e55612286565b6040519080825280601f01601f191660200182016040528015611e7f576020820181803683370190505b5090508181016020015b5f19016f181899199a1a9b1b9c1cb0b131b232b360811b600a86061a8153600a8504945084611e89575b509392505050565b5f6001600160a01b0383161580159061195a5750826001600160a01b0316846001600160a01b03161480611ef45750611ef4848461141e565b8061195a5750505f908152600460205260409020546001600160a01b03908116911614919050565b5f8072184f03e93ff9f4daa797ed6e38ed64bf6a1f0160401b8310611f5a5772184f03e93ff9f4daa797ed6e38ed64bf6a1f0160401b830492506040015b6d04ee2d6d415b85acef81000000008310611f86576d04ee2d6d415b85acef8100000000830492506020015b662386f26fc100008310611fa457662386f26fc10000830492506010015b6305f5e1008310611fbc576305f5e100830492506008015b6127108310611fd057612710830492506004015b60648310611fe2576064830492506002015b600a83106104865760010192915050565b6040518061014001604052805f81526020015f6001600160a01b031681526020015f6001600160a01b03168152602001606081526020016060815260200160608152602001606081526020015f81526020015f81526020015f151581525090565b6001600160e01b03198116811461155d575f5ffd5b5f60208284031215612079575f5ffd5b8135611d0f81612054565b5f81518084528060208401602086015e5f602082860101526020601f19601f83011685010191505092915050565b602081525f611d0f6020830184612084565b5f602082840312156120d4575f5ffd5b5035919050565b80356001600160a01b03811681146120f1575f5ffd5b919050565b5f5f60408385031215612107575f5ffd5b612110836120db565b946020939093013593505050565b5f5f5f60608486031215612130575f5ffd5b612139846120db565b9250612147602085016120db565b929592945050506040919091013590565b5f5f60408385031215612169575f5ffd5b82359150612179602084016120db565b90509250929050565b805182525f60208201516121a160208501826001600160a01b03169052565b5060408201516121bc60408501826001600160a01b03169052565b50606082015161014060608501526121d8610140850182612084565b9050608083015184820360808601526121f18282612084565b91505060a083015184820360a086015261220b8282612084565b91505060c083015184820360c08601526122258282612084565b91505060e083015160e0850152610100830151610100850152610120830151611eb361012086018215159052565b8215158152604060208201525f61195a6040830184612182565b5f6020828403121561227d575f5ffd5b611d0f826120db565b634e487b7160e01b5f52604160045260245ffd5b5f5f67ffffffffffffffff8411156122b4576122b4612286565b50604051601f19601f85018116603f0116810181811067ffffffffffffffff821117156122e3576122e3612286565b6040528381529050808284018510156122fa575f5ffd5b838360208301375f60208583010152509392505050565b5f82601f830112612320575f5ffd5b611d0f8383356020850161229a565b5f5f5f5f5f5f5f60e0888a031215612345575f5ffd5b61234e886120db565b9650602088013567ffffffffffffffff811115612369575f5ffd5b6123758a828b01612311565b965050604088013567ffffffffffffffff811115612391575f5ffd5b61239d8a828b01612311565b955050606088013567ffffffffffffffff8111156123b9575f5ffd5b6123c58a828b01612311565b945050608088013567ffffffffffffffff8111156123e1575f5ffd5b6123ed8a828b01612311565b93505060a0880135915060c088013567ffffffffffffffff811115612410575f5ffd5b61241c8a828b01612311565b91505092959891949750929550565b602081525f611d0f6020830184612182565b5f5f6040838503121561244e575f5ffd5b612457836120db565b91506020830135801515811461246b575f5ffd5b809150509250929050565b602080825282518282018190525f918401906040840190835b818110156124ad57835183526020938401939092019160010161248f565b509095945050505050565b5f5f5f5f608085870312156124cb575f5ffd5b6124d4856120db565b93506124e2602086016120db565b925060408501359150606085013567ffffffffffffffff811115612504575f5ffd5b8501601f81018713612514575f5ffd5b6125238782356020840161229a565b91505092959194509250565b8a81526001600160a01b038a8116602083015289166040820152610140606082018190525f906125619083018a612084565b8281036080840152612573818a612084565b905082810360a08401526125878189612084565b905082810360c084015261259b8188612084565b60e08401969096525050610100810192909252151561012090910152979650505050505050565b5f5f604083850312156125d3575f5ffd5b6125dc836120db565b9150612179602084016120db565b600181811c908216806125fe57607f821691505b60208210810361261c57634e487b7160e01b5f52602260045260245ffd5b50919050565b634e487b7160e01b5f52601160045260245ffd5b8181038181111561048657610486612622565b5f6001820161265a5761265a612622565b5060010190565b601f82111561074f57805f5260205f20601f840160051c810160208510156126865750805b601f840160051c820191505b818110156118da575f8155600101612692565b815167ffffffffffffffff8111156126bf576126bf612286565b6126d3816126cd84546125ea565b84612661565b6020601f821160018114612705575f83156126ee5750848201515b5f19600385901b1c1916600184901b1784556118da565b5f84815260208120601f198516915b828110156127345787850151825560209485019460019092019101612714565b508482101561275157868401515f19600387901b60f8161c191681555b50505050600190811b01905550565b8082018082111561048657610486612622565b606081525f6127856060830186612084565b60208301949094525060400152919050565b6001600160a01b03858116825284166020820152604081018390526080606082018190525f906127c990830184612084565b9695505050505050565b5f602082840312156127e3575f5ffd5b8151611d0f81612054565b5f81518060208401855e5f93019283525090919050565b5f61195a61281383866127ee565b846127ee56fea26469706673582212208598b6196435bf3f13cff57a2485ac24a1c054af2d3e531014d59e18f6a86a8064736f6c634300081b0033",
  "linkReferences": {},
  "deployedLinkReferences": {}
}